:0E027D000C3E202020202020202020202020A9
:0A023200FF7B007A007900E4F5502C
:08023C008F4C8B4D8A4E894F57
:10024400D2927F0171FCC292AF4C71A1E4F551E5E9
:1002540051C3955050197F0871FCAB4DAA4EA94F5C
:100264008551827583007174FF71A1055180E07F0F
:090274001071FCD2927F0161FCC3
:0203A1008F5279
:1003A300755308C293E55230E003D38001C39291A1
:1003B3007F0171FCD2937F0171FCE552C313F552A7
:0503C300D553E0C291DA
:0103C8002212
:0703FC00AE071FEE70FA22AC
:10033A008F4A8D4B7B007A007900E4F5507F40515B
:10034A003CE54AC4540F4450120232E54A540F4461
:10035A006012023271E271EFE54B540F4470FF7B79
:0A036A00007A007900E4F550413CF0
:0D03E2007B007A00793E75500C7F10413C85
:0D03EF007B007A00793E75500C7F30413C58
:08000300496E6974206F6B0067
:10028B00C100012400012700012A000126000228D9
:10029B000000022B0000012500C1010321A3FA9DE0
:1002AB00112D64646464646464646464646464648D
:0302BB0064646414
:1000250051BFC2AF7D687C01AF2CAE2B71C9920068
:10003500E52464056002211AFB7A00792DAD2D5166
:10004500FFE5232F652660022113E52E54F024E0F9
:10005500602224F0602924F0603024F0603724F019
:10006500603E24F0604524E0605024806002211346
:1000750071E280007B007A00792FE52D1480127BD8
:10008500007A00792F755001802A7B007A0079006B
:10009500E4F550801F7B007A007900E4F550801468
:1000A5007B007A007900E4F55080097B007A0079BD
:1000B50000E4F550AF2E513C8054E52E540F1460EA
:1000C5002414602B14603014603324047040D297DC
:1000D500C296C2B2D2017B007A007900E4F5507F66
:1000E50071513C8029C297D296D2B2C201800EAD21
:1000F50030AF2F713A801771E271EF801171E271A3
:10010500EF7B007A007900E4F5507F70513CE4F50F
:0901150026C200F524D2AF012737
:0802FF008B4A8A4B894C8D4D9E
:10030700E4F54EF54FE54D2401FFE433FEC3E54E1A
:100317009FEE6480F87480985016AB4AAA4BA94C9C
:10032700854E827583007174254FF54F054E80D534
:02033700AF4FC6
:0103390022A1
:1002BF00C2AF75B302758922758DFF758BFF758C73
:1002CF0080758A807598D04387C0E4FD7F74713A3A
:1002DF007BFF7A0079037550077F12513CC297D28A
:1002EF0096D2B2C201D2ACD2A9D2AFD28ED28C22C8
:02000B00010DE5
:10000D00C0E0C2A90529E52970020528D2A9D0E0D2
:01001D0032B0
:0200230021AA10
:1001AA00C0E0C0D075D010C2AFC29830000B752421
:1001BA0000C200752700752A00E524146022146025
:1001CA002B14604214605124047056E5996521701D
:1001DA0050752401C2A985282B85292CD2A98041D2
:1001EA00E599B522057524028037800A8599277416
:1001FA0010C3952750057524008026752403752A97
:10020A000185272D801BAF2A052A742D2FF8A69960
:10021A00D5270E7524048009859926752A00752428
:08022A0005D2AFD0D0D0E032C4
:1003C900C2A9D2A9C3E5299FFFE5289EFED3EF9DC7
:0803D900EE9C4003D38001C338
:0103E10022F9
:0300000002011EDC
:0C011E00787FE4F6D8FD7581530201657E
:10037400BB010CE58229F582E5833AF583E022503E
:1003840006E92582F8E622BBFE06E92582F8E22288
:0D039400E58229F582E5833AF583E49322A2
:10012A00020025E493A3F8E493A34003F68001F2C6
:10013A0008DFF48029E493A3F85407240CC8C333D6
:10014A00C4540F4420C8834004F456800146F6DFA5
:10015A00E4800B010204081020408090027DE47EB6
:10016A00019360BCA3FF543F30E509541FFEE4939A
:10017A00A360010ECF54C025E060A840B8E493A361
:10018A00FAE493A3F8E493A3C8C582C8CAC583CA8C
:10019A00F0A3C8C582C8CAC583CADFE9DEE780BE44
:0102BE00003F
:00000001FF
